:020000040800F2
:100000000030002029650008496400084B6400089E
:100010004D6400084F6400085164000800000000AF
:100020000000000000000000000000005364000811
:100030005564000800000000576400085964000877
:100040007965000879650008796500087965000818
:100050007965000879650008796500087965000808
:1000600079650008796500087965000879650008F8
:1000700079650008796500087965000879650008E8
:1000800079650008796500087965000879650008D8
:1000900079650008796500087965000879650008C8
:1000A00079650008796500087965000879650008B8
:1000B000796500087965000800000000796500088E
:1000C0007965000800000000000000007965000864
:1000D0000000000061640008796500087965000887
:1000E0007965000879650008000000000000000044
:1000F0000000000000000000000000000000000000
:1001000000000000000000000000000000000000EF
:10011000000000000000000071640008796500081C
:1001200000000000000000000000000000000000CF
:1001300000000000000000000000000000000000BF
:1001400079650008796500080000000079650008FD
:100150007965000879650008796500087965000807
:1001600079650008796500080000000000000000C3
:10017000000000000000000000000000000000007F
:0801800000000000816400088A
:1001880010B5054C237833B9044B13B10448AFF3C9
:1001980000800123237010BD4802002000000000E9
:1001A800C895000808B5034B1BB103490348AFF3D2
:1001B800008008BD000000004C020020C89500081F
:1001C800034613F8012B002AFBD1181A013870478F
:1001D80081F0004102E000BF83F0004330B54FEAF0
:1001E80041044FEA430594EA050F08BF90EA020F5D
:1001F8001FBF54EA000C55EA020C7FEA645C7FEAF0
:10020800655C00F0E2804FEA5454D4EB5555B8BF12
:100218006D420CDD2C4480EA020281EA030382EA83
:10022800000083EA010180EA020281EA0303362D15
:1002380088BF30BD11F0004F4FEA01314FF4801CE8
:100248004CEA113102D0404261EB410113F0004FFA
:100258004FEA03334CEA133302D0524263EB4303B1
:1002680094EA050F00F0A780A4F10104D5F1200E4F
:100278000DDB02FA0EFC22FA05F2801841F10001AA
:1002880003FA0EF2801843FA05F359410EE0A5F17E
:1002980020050EF1200E012A03FA0EFC28BF4CF0AF
:1002A800020C43FA05F3C01851EBE37101F0004565
:1002B80007D54FF0000EDCF1000C7EEB00006EEB72
:1002C8000101B1F5801F1BD3B1F5001F0CD34908FC
:1002D8005FEA30004FEA3C0C04F101044FEA445253
:1002E80012F5800F80F09A80BCF1004F08BF5FEADA
:1002F800500C50F1000041EB045141EA050130BDBA
:100308005FEA4C0C404141EB010111F4801FA4F15C
:100318000104E9D191F0000F04BF01460020B1FAB1
:1003280081F308BF2033A3F10B03B3F120020CDAE9
:100338000C3208DD02F1140CC2F10C0201FA0CF0C7
:1003480021FA02F10CE002F11402D8BFC2F1200C2C
:1003580001FA02F120FA0CFCDCBF41EA0C019040E2
:10036800E41AA2BF01EB0451294330BD6FEA04042B
:100378001F3C1CDA0C340EDC04F11404C4F1200216
:1003880020FA04F001FA02F340EA030021FA04F328
:1003980045EA030130BDC4F10C04C4F1200220FA7F
:1003A80002F001FA04F340EA0300294630BD21FABD
:1003B80004F0294630BD94F0000F83F4801306BF83
:1003C80081F480110134013D4EE77FEA645C18BF77
:1003D8007FEA655C29D094EA050F08BF90EA020F0E
:1003E80005D054EA000C04BF1946104630BD91EA06
:1003F800030F1EBF0021002030BD5FEA545C05D109
:100408004000494128BF41F0004130BD14F5800447
:100418003CBF01F5801130BD01F0004545F0FE41BB
:1004280041F470014FF0000030BD7FEA645C1ABFF0
:10043800194610467FEA655C1CBF0B46024650EA27
:10044800013406BF52EA033591EA030F41F4002153
:1004580030BD00BF90F0000F04BF0021704730B5D9
:100468004FF4806404F132044FF000054FF00001AE
:1004780050E700BF90F0000F04BF0021704730B56F
:100488004FF4806404F1320410F0004548BF404244
:100498004FF000013EE700BF42004FEAE2014FEA99
:1004A80031014FEA02701FBF12F07F4393F07F4F74
:1004B80081F06051704792F0000F14BF93F07F4FA6
:1004C800704730B54FF4607401F0004521F00041E9
:1004D80020E700BF50EA010208BF704730B54FF06F
:1004E80000050AE050EA010208BF704730B511F074
:1004F800004502D5404261EB41014FF4806404F1AC
:1005080032045FEA915C3FF4DCAE4FF003025FEA2D
:10051800DC0C18BF03325FEADC0C18BF033202EBB5
:10052800DC02C2F1200300FA03FC20FA02F001FA0F
:1005380003FE40EA0E0021FA02F11444C1E600BFAE
:1005480070B54FF0FF0C4CF4E06C1CEA11541DBF61
:100558001CEA135594EA0C0F95EA0C0F00F0DEF82C
:100568002C4481EA030621EA4C5123EA4C5350EA11
:10057800013518BF52EA033541F4801143F4801362
:1005880038D0A0FB02CE4FF00005E1FB02E506F0F3
:100598000042E0FB03E54FF00006E1FB03569CF048
:1005A800000F18BF4EF0010EA4F1FF04B6F5007F4E
:1005B80064F5407404D25FEA4E0E6D4146EB0606C0
:1005C80042EAC62141EA55514FEAC52040EA5E5049
:1005D8004FEACE2EB4F1FD0C88BFBCF5E06F1ED8F3
:1005E800BEF1004F08BF5FEA500E50F1000041EB2A
:1005F800045170BD06F0004646EA010140EA0200D7
:1006080081EA0301B4EB5C04C2BFD4EB0C0541EAF8
:10061800045170BD41F480114FF0000E013C00F30D
:10062800AB8014F1360FDEBF002001F0004170BD31
:10063800C4F10004203C35DA0C341BDC04F114044A
:10064800C4F1200500FA05F320FA04F001FA05F2D6
:1006580040EA020001F0004221F0004110EBD370A3
:1006680021FA04F642EB06015EEA430E08BF20EACF
:10067800D37070BDC4F10C04C4F1200500FA04F372
:1006880020FA05F001FA04F240EA020001F0004104
:1006980010EBD37041F100015EEA430E08BF20EA77
:1006A800D37070BDC4F1200500FA05F24EEA020EBF
:1006B80020FA04F301FA05F243EA020321FA04F0EE
:1006C80001F0004121FA04F220EA020000EBD370A5
:1006D8005EEA430E08BF20EAD37070BD94F0000FA5
:1006E8000FD101F00046400041EB010111F4801FD9
:1006F80008BF013CF7D041EA060195F0000F18BF8A
:10070800704703F00046520043EB030313F4801FC5
:1007180008BF013DF7D043EA0603704794EA0C0F7F
:100728000CEA135518BF95EA0C0F0CD050EA410695
:1007380018BF52EA4306D1D181EA030101F0004112
:100748004FF0000070BD50EA410606BF104619463A
:1007580052EA430619D094EA0C0F02D150EA013646
:1007680013D195EA0C0F05D152EA03361CBF104687
:1007780019460AD181EA030101F0004141F0FE4126
:1007880041F470014FF0000070BD41F0FE4141F4AA
:10079800780170BD70B54FF0FF0C4CF4E06C1CEAAA
:1007A80011541DBF1CEA135594EA0C0F95EA0C0F5F
:1007B80000F0A7F8A4EB050481EA030E52EA03351A
:1007C8004FEA013100F088804FEA03334FF080553B
:1007D80045EA131343EA12634FEA022245EA111568
:1007E80045EA10654FEA00260EF000419D4208BF19
:1007F800964244F1FD0404F5407402D25B084FEAC6
:100808003202B61A65EB03055B084FEA32024FF471
:1008180080104FF4002CB6EB020E75EB030E22BFCE
:10082800B61A754640EA0C005B084FEA3202B6EB8E
:10083800020E75EB030E22BFB61A754640EA5C003D
:100848005B084FEA3202B6EB020E75EB030E22BFCD
:10085800B61A754640EA9C005B084FEA3202B6EBCE
:10086800020E75EB030E22BFB61A754640EADC008D
:1008780055EA060E18D04FEA051545EA16754FEAEF
:1008880006164FEAC30343EA52734FEAC2025FEA0D
:100898001C1CC0D111F4801F0BD141EA00014FF09C
:1008A80000004FF0004CB6E711F4801F04BF01436D
:1008B8000020B4F1FD0C88BFBCF5E06F3FF6AFAE89
:1008C800B5EB030C04BFB6EB020C5FEA500C50F119
:1008D800000041EB045170BD0EF0004E4EEA11319C
:1008E80014EB5C04C2BFD4EB0C0541EA045170BDA3
:1008F80041F480114FF0000E013C90E645EA060EE7
:100908008DE60CEA135594EA0C0F08BF95EA0C0F14
:100918003FF43BAF94EA0C0F0AD150EA01347FF45C
:1009280034AF95EA0C0F7FF425AF104619462CE733
:1009380095EA0C0F06D152EA03353FF4FDAE104696
:10094800194622E750EA410618BF52EA43067FF4E7
:10095800C5AE50EA41047FF40DAF52EA43057FF477
:10096800EBAE12E74FF0FF3C06E000BF4FF0010C82
:1009780002E000BF4FF0010C4DF804CD4FEA410CE6
:100988007FEA6C5C4FEA430C18BF7FEA6C5C1BD0B3
:1009980001B050EA410C0CBF52EA430C91EA030F34
:1009A80002BF90EA020F0020704710F1000F91EA91
:1009B800030F58BF994208BF90422CBFD8176FEA5F
:1009C800E37040F0010070474FEA410C7FEA6C5C2D
:1009D80002D150EA013C07D14FEA430C7FEA6C5C34
:1009E800D6D152EA033CD3D05DF8040B704700BF60
:1009F8008446104662468C461946634600E000BFAE
:100A080001B5FFF7B7FF002848BF10F1000F01BD7F
:100A18004DF808EDFFF7F4FF0CBF012000205DF84A
:100A280008FB00BF4DF808EDFFF7EAFF34BF0120CF
:100A380000205DF808FB00BF4DF808EDFFF7E0FF68
:100A480094BF012000205DF808FB00BF4DF808EDB9
:100A5800FFF7CEFF94BF012000205DF808FB00BF20
:100A68004DF808EDFFF7C4FF34BF012000205DF802
:100A780008FB00BF4FEA410C7FEA6C5C02D150EAE8
:100A8800013C0AD14FEA430C7FEA6C5C02D152EA7E
:100A9800033C02D14FF0000070474FF0010070474F
:100AA8004FEA410212F5001215D211D56FF478738E
:100AB800B3EB625212D94FEAC12343F0004343EA31
:100AC800505311F0004F23FA02F018BF404270470C
:100AD8004FF00000704750EA013005D111F0004096
:100AE80008BF6FF0004070474FF00000704700BF2C
:100AF8004A0011D212F5001211D20DD56FF4787395
:100B0800B3EB62520ED44FEAC12343F0004343EAE9
:100B1800505323FA02F070474FF00000704750EA34
:100B2800013002D14FF0FF3070474FF0000070479E
:100B38004FEA4102B2F1E04324BFB3F5001CDCF1F7
:100B4800FE5C0DD901F0004C4FEAC0024CEA50702F
:100B5800B2F1004F40EB830008BF20F0010070475E
:100B680011F0804F21D113F13872BCBF01F0004061
:100B7800704741F480114FEA5252C2F11802C2F193
:100B8800200C10FA0CF320FA02F018BF40F0010014
:100B98004FEAC1234FEAD32303FA0CFC40EA0C00C6
:100BA80023FA02F34FEA4303CCE77FEA625307D103
:100BB80050EA01331EBF4FF0FE4040F4400070473A
:100BC80001F0004040F0FE4040F40000704700BFD4
:100BD80010B504460E4B18784FF47A73B3FBF0F354
:100BE8000C4A1068B0FBF3F000F0A6FD68B90F2CB2
:100BF80001D9012010BD002221464FF0FF3000F03E
:100C08005DFD054B1C60002010BD012010BD00BF1C
:100C1800000000206C0000200400002008B5074AEE
:100C2800136843F010031360032000F035FD002023
:100C3800FFF7CEFF05F01EFB002008BD0020024094
:100C4800034A1168034B1B780B441360704700BFBD
:100C58008403002000000020014B1868704700BF83
:100C68008403002038B50446FFF7F6FF0546B4F1C3
:100C7800FF3F02D0044B1B781C44FFF7EDFF401BDD
:100C88008442FAD838BD00BF0000002038B5026899
:100C9800936803F00303012B11D00023002B37D0F6
:100CA800936803F00D03012B11D0436C43F010033C
:100CB8004364836C43F001038364012038BD1368E7
:100CC80013F0010F01D10023E8E70123E6E704460A
:100CD800936843F002039360036803221A60FFF7E6
:100CE800BBFF054623689B6813F0010F0ED0FFF782
:100CF800B3FF401B0228F5D9636C43F0100363640B
:100D0800A36C43F00103A364012038BD002038BD63
:100D1800002038BD38B50268936803F00303012B3F
:100D280010D00023002B33D191681A4B194211D0EF
:100D3800436C43F010034364836C43F00103836402
:100D4800012038BD136813F0010F01D10023E9E732
:100D58000123E7E70446936843F001039360FFF734
:100D68007BFF054623681B6813F0010F0ED1FFF7C0
:100D780073FF401B0228F5D9636C43F010036364CA
:100D8800A36C43F00103A364012038BD002038BDE3
:100D9800002038BD3F00008030B597B00023009395
:100DA800002800F0FB800446436C13F0100F51D16B
:100DB800436CABB1002023689A6812F0805F03D0BF
:100DC8009B6813F0005F46D0636C23F0120343F076
:100DD80010036364A36C43F00103A36401203AE0A9
:100DE80083640365C36480F8403005F069FA2368BA
:100DF8009B6813F0805F01D00020DCE72046FFF7F6
:100E080045FF636C13F0100FD5D10028D3D1636C64
:100E180023F4885323F0020343F002036364226837
:100E2800936823F0405393602268936843F080539B
:100E380093605B4B1B685B4AA2FB03239B0C03EB91
:100E480083035A000092009B002BB4D0009B013B07
:100E58000093F8E70020636C13F0100F40F09580C2
:100E6800002840F092802268936813F0040340F051
:100E78008C80616C21F4817141F002016164B2F1EE
:100E8800A04F55D04FF0A0410191916801F00301A6
:100E9800012950D0002272B9019D2DB1A96801F035
:100EA800030101294FD032B93F498A6822F4403200
:100EB80065682A438A60E2695103A56B012D01D058
:100EC8004FF480530B43E1680B43A1680B43616AFD
:100ED80001293ED0E26A012A02D0216B0A4313435A
:100EE8002268916811F00C0F0BD1D16821F4804170
:100EF80021F00201D160A169626B520042EA81329D
:100F080013432168CD68294A2A401343CB602369DB
:100F1800012B31D02268136B23F00F0313630023D6
:100F2800A364636C23F0030343F00103636433E0B9
:100F38001F490191A9E7126812F0010F01D100229F
:100F4800A9E70122A7E7296811F0010FABD0012218
:100F5800A9E732B9A26A013A43EA424343F480332B
:100F6800B8E7626C22F0220242F020026264A26CAE
:100F780042F00102A264ADE721680B6B23F00F0376
:100F8800226A013A13430B63C9E7636C23F0120327
:100F980043F010036364012017B030BD0120FBE764
:100FA8006C00002083DE1B430003005007C0F0FFE5
:100FB8000001005003689B6813F0040F02D002235D
:100FC8001846704790F84030012B01D10223F7E70B
:100FD80010B50446012380F84030FFF79BFE034616
:100FE800002860D1626C22F4706222F0010242F49F
:100FF800807262642E4A926812F01F0F33D0216803
:10100800B1F1A04F2FD0626C42F480126264294A79
:10101800914238D0626C12F4805F41D0A26C22F009
:101028000602A264002284F8402022681C21116074
:101038001F4A926812F01F0F0FD01D4A926802F0E3
:101048001F02052A09D01A4A926802F01F02092ACB
:1010580003D02268B2F1A04F28D121688A6842F0F3
:1010680004028A6022E0626C22F4801262642268C0
:10107800D26812F0007FCDD0626C22F4405242F464
:1010880080526264C6E74FF0A042D26812F0007F37
:10109800C0D0626C22F4405242F480526264B9E7D4
:1010A8000022A264BEE7002284F84020184610BD42
:1010B80000030050000100502DE9F0414669082E58
:1010C8000AD0424B9B6813F01F0F1CD10368DB68E2
:1010D80013F0010F0DD10C263C4B9B6813F01F0F2A
:1010E80022D00368B3F1A04F1ED04FF0A043DF68B1
:1010F8001CE0436C43F020034364002380F8403035
:101108000120BDE8F081314B9B6813F4404F01D1B9
:101118000C26E1E7436C43F020034364002380F886
:1011280040300120BDE8F0810368DF680D460446C1
:10113800FFF792FD804623681A68164213D1B5F16D
:10114800FF3FF8D02DB1FFF787FDA0EB08008542DF
:10115800F1D2636C43F004036364002384F84030E5
:101168000320BDE8F081626C42F400726264DA68C0
:1011780012F4406F1FD117F4005F1CD11A6812F0E7
:10118800080F18D09A6812F0040F0CD1626C22F480
:1011980080726264626C12F4805F0CD1626C42F0FF
:1011A8000102626407E0626C42F020026264A26C91
:1011B80042F00102A26417F4804F03D11E600020A0
:1011C800BDE8F0810020BDE8F08100BF00030050B9
:1011D8000368186C7047000070B497B00022009242
:1011E80090F84020012A00F0AD810346012280F8E2
:1011F80040200068826812F0040F40F096814A6827
:10120800042A31D8046B02EB420255001F22AA407F
:1012180024EA02020C68AC40224302631868826820
:1012280012F00C0F68D10A68092A4ED9846902EBBA
:1012380042021E3A0725954024EA05048D6805FAFE
:1012480002F22243826148691C68E268C2F3C10263
:10125800520000FA02F208690138032800F28F8070
:10126800DFE800F0406C7782092A0ED8446B02EB65
:10127800420255001E3D1F22AA4024EA02020C68C1
:1012880004FA05F52A434263C8E70E2A0ED8846B90
:1012980002EB420255003C3D1F22AA4024EA02020A
:1012A8000C6804FA05F52A438263B7E7C46B02EBBE
:1012B800420255005A3D1F22AA4024EA02020C6845
:1012C80004FA05F52A43C263A8E7446902EB42021F
:1012D8000725954024EA05048D6805FA02F22243A1
:1012E8004261B0E7206E984D0540086842EA806286
:1012F800154345F0004525661868826802F0030228
:10130800012A6FD00022002A40F01A81CC68012CF3
:1013180070D0D0F8B0400E680125B54024EA050425
:10132800C0F8B0400968102900F08D80112900F03C
:10133800AF80122900F0B2800020FBE0606E824D81
:101348000540086842EA8062154345F00045656635
:10135800D2E7A06E7C4D0540086842EA80621543DA
:1013680045F00045A566C7E7E56E774828400D6853
:1013780042EA8562024342F00042E266BCE7226E1E
:1013880002F0F8420868B2EB806F1CD01868426E11
:1013980002F0F8420C68B2EB846F19D01868826EBC
:1013A80002F0F8420C68B2EB846F16D01868C26E6F
:1013B80002F0F8420C68B2EB846F9DD1C26E22F045
:1013C8000042C26698E7226E22F000422266DDE7FC
:1013D800426E22F000424266E0E7826E22F000424E
:1013E8008266E3E7026812F0010F01D100228AE762
:1013F800012288E7D0F8B0400E680125B5402C439B
:10140800C0F8B040086809280ED91E68B46900EB16
:1014180040001B380725854024EA05048D6805FA35
:1014280000F02043B0617DE71E687469013000EB6D
:1014380040000725854024EA05048D6805FA00F078
:10144800204370616EE74148806810F4000F7FF414
:101458006DAF1C68B4F1A04F27D04FF0A0400190A9
:10146800A06800F00300012822D0002A57D1019D6E
:1014780035B1A86800F0030001281FD0002A4ED11A
:10148800102921D0112939D0122941D0002051E04A
:101498002E48806810F0807FDBD04AE72B488068B0
:1014A80010F4800FD5D0002044E029480190D7E7F8
:1014B800206810F0010FD8D00122D6E7286810F074
:1014C800010FDBD00122D9E7B4F1A04FDAD11F49CF
:1014D8008A6842F400028A601E4A12681E49B2FBFA
:1014E800F1F10A2202FB01F2009202E0009A013AAD
:1014F8000092009A002AF9D100201BE0B4F1A04F15
:10150800C2D112498A6842F080728A60002011E0D4
:101518000E498A6842F480028A6000200AE05A6C08
:1015280042F020025A64012004E05A6C42F0200282
:101538005A640120002283F8402017B070BC70471D
:101548000020F7E70220F8E700F0FF8300030050CF
:10155800000100506C00002040420F0070B497B0AA
:1015680003460268B2F1A04F40D04FF0A04001906E
:101578000198002800F0888093F84040012C00F082
:101588008580012483F84040926812F0040F68D1E6
:10159800826812F0040F64D10A68002A37D03C4DE3
:1015A800AA6822F460424C685E6B44EA46342243DF
:1015B800AA601C68A26802F00302012A19D000225E
:1015C800002A59D1846804F00304012C19D0002A98
:1015D80054D12F4CA26822F4716222F00F020868DD
:1015E800896801430A43A26000203FE0294801902E
:1015F800BEE7226812F0010F01D10022E0E70122C4
:10160800DEE7006810F0010FE1D00122DFE7204992
:101618008A6822F460428A6019688A6802F00302C4
:10162800012A10D000225ABB816801F00301012968
:1016380011D03ABB16498A6822F4716222F00F026F
:101648008A60002012E00A6812F0010F01D100221E
:10165800E9E70122E7E7016811F0010FE9D001226B
:10166800E7E75A6C42F020025A640120002283F80E
:10167800402017B070BC70470020F7E70020F5E75E
:101688000020F3E70020F1E70120F2E70220F0E76D
:101698000003005000010050074AD36823F4E063B8
:1016A8001B041B0C000200F4E060184340F0BF600C
:1016B80040F40030D060704700ED00E030B4164BC5
:1016C800DB68C3F30223C3F10704042C28BF0424F6
:1016D8001D1D062D17D9033B012505FA04F4013C0D
:1016E8002140994005FA03F3013B134019430028B0
:1016F8000BDB0901C9B200F1604000F5614080F8D8
:10170800001330BC70470023E6E700F00F00090122
:10171800C9B2024B1954F4E700ED00E014ED00E003
:10172800420900F01F00012303FA00F0014B43F8BF
:101738002200704700E100E00138B0F1807F0AD252
:10174800064B5860F021064A82F823100020986062
:1017580007221A6070470120704700BF10E000E0C0
:1017680000ED00E008B590F82130022B03D00423E7
:101778008363012008BD0268136823F00E03136019
:101788000268136823F001031360C16B036C012224
:1017980002FA03F34B6080F82120002380F8203000
:1017A800436B13B19847002008BD002008BD000016
:1017B800F0B583B0002388E0DE08083650F82640EC
:1017C80003F0070E4FEA8E0E0F2707FA0EF724EAEA
:1017D80007040F6907FA0EF73C4340F8264083E0F8
:1017E80086682640CF6807FA0EF73E43866046684B
:1017F80026EA05054E68C6F300169E403543456047
:10180800C5682C408D6805FA0EF52C43C4604C68F9
:1018180014F0805F58D0474CA56945F00105A561D3
:10182800A46904F001040194019C9D08AE1C424C7B
:1018380054F8264003F00306B6000F27B74024EA01
:101848000704B0F1904F6CD03C4FB8426BD007F50D
:101858008067B84269D007F58067B8425FD005272E
:1018680007FA06F634430235334E46F82540344C21
:101878002568D44305EA04064F6817F4803F01D071
:1018880042EA05062E4D2E606D6804EA05064F688B
:1018980017F4003F01D042EA0506294D6E60AD6895
:1018A80004EA05064F6817F4801F01D042EA0506CE
:1018B800234DAE60ED682C404E6816F4001F01D031
:1018C80042EA05041E4AD46001330A6832FA03F476
:1018D8002DD001259D402A40F6D04C68022C3FF4BB
:1018E8006BAF122C3FF468AF06684FEA430E03242F
:1018F80004FA0EF4E44326404F6807F0030707FA9A
:101908000EF73E4306604E68771E012F7FF668AFDC
:10191800112E3FF465AF122E7FF472AF60E70327F4
:101928009EE700279CE701279AE7022798E703B07C
:10193800F0BD00BF00100240000001400004004854
:10194800000401400AB981627047816170470368E9
:101958009A6912F0020F01D000229A6203689A690C
:1019680012F0010F03D19A6942F001029A6170479F
:1019780070B4039D066870686C0D04F4806444F0CC
:101988007F7444F4583444F47F7444F0030420EA28
:101998000400C1F3090141EA0241194329430843FC
:1019A800706070BC704770B504460D4616460368F3
:1019B8009B6913F0100F17D023689A6912F0200F53
:1019C80014D1B5F1FF3FF7D025B1FFF745F9801BDA
:1019D8008542F1D2202384F84130002384F8423034
:1019E80084F84030032070BD002070BD1022DA61F9
:1019F80023682025DD612046FFF7A9FF2268536888
:101A080023F0FF7323F48B3323F4FF7323F00103D4
:101A180053600423636484F84150002384F84230FF
:101A280084F84030012070BD70B504460D46164656
:101A380023689B6913F0020F1CD1324629462046C1
:101A4800FFF7B1FFC0B9B5F1FF3FF1D025B1FFF7FE
:101A580003F9801B8542EBD2636C43F02003636477
:101A6800202384F84130002384F8423084F8403041
:101A7800032070BD002070BD012070BDF8B505467B
:101A88000F4616461C462B689B6937EA03030CBFB2
:101A980001230023B34213D1B4F1FF3FF3D02CB19B
:101AA800FFF7DAF8069BC01A8442ECD2202385F8A7
:101AB8004130002385F8423085F840300320F8BDD6
:101AC8000020F8BD70B582B0044616461D461E4B70
:101AD80000934FF08073EAB2FFF74AFF079A06991E
:101AE8002046FFF7A1FF40B1636C042B03D003230A
:101AF800184602B070BD0123FAE7012D0DD0236806
:101B0800320A9A62079A06992046FFF78DFFB0B10C
:101B1800636C042B11D00323EAE72368F6B29E62B4
:101B2800079B0093069B002280212046FFF7A6FF13
:101B380003460028DCD00323DAE70123D8E723682B
:101B4800F6B29E62ECE700BF0020008070B582B05C
:101B5800044616461D461D4B00930023EAB2FFF7C4
:101B680007FF079A06992046FFF75EFF40B1636CAE
:101B7800042B03D00323184602B070BD0123FAE7F3
:101B8800012D0DD02368320A9A62079A06992046D9
:101B9800FFF74AFFB0B1636C042B11D00323EAE7C7
:101BA8002368F6B29E62079B0093069B00224021A1
:101BB8002046FFF763FF03460028DCD00323DAE75B
:101BC8000123D8E72368F6B29E62ECE70020008084
:101BD80070B505460C4616462B689B6913F0200F16
:101BE80019D1324621462846FFF7DDFEA8B924B1AF
:101BF800FFF732F8801B8442EED26B6C43F020036F
:101C08006B64202385F84130002385F8423085F83D
:101C18004030032070BD002070BD012070BD70B53C
:101C280004460D46164623689B6913F0040F3DD100
:101C3800324629462046FFF7B6FE0146002837D12E
:101C480023689A6912F0200F12D125B1FFF704F822
:101C5800801B8542E7D2636C43F020036364202332
:101C680084F84130002384F840300321084670BDD1
:101C78009A6912F0040F02D0228D002AF6D1202290
:101C8800DA6121684B6823F0FF7323F48B3323F464
:101C9800FF7323F001034B600023636484F8412041
:101CA80084F8423084F840300121DFE70021DDE785
:101CB8000121DBE7002859D010B5044690F84130DF
:101CC800002B43D0242384F841302268136823F082
:101CD800010313602268636823F07063136122684C
:101CE800936823F400439360E368012B33D02268A0
:101CF800A36843F404439360E368022B31D022685D
:101D0800536843F0007343F4004353602268D36878
:101D180023F40043D3602268236961690B43A169F6
:101D280043EA0123D3602268E369216A0B43136005
:101D38002268136843F001031360002060642023C5
:101D480084F84130206384F8420010BD80F84030A8
:101D580004F0E4FAB6E72268A36843F4004393600A
:101D6800CAE723684FF400625A60C8E70120704749
:101D78002DE9F04383B090F84150EDB2202D04D006
:101D88000223184603B0BDE8F08390F84040012CC8
:101D980001D10223F5E7984617460D4604464FF051
:101DA800010980F84090FEF757FF06460090192376
:101DB8004A464FF400412046FFF760FE08B103236E
:101DC800DFE7212384F84130102384F842300023D0
:101DD80063646762A4F82A806363638D9BB2FF2BF8
:101DE8000AD9FF222285434B00934FF0807329467E
:101DF8002046FFF7BDFD1FE0628D92B222853D4B64
:101E080000934FF00073D2B229462046FFF7B0FD89
:101E180012E0636C042B01D00323B2E70123B0E77F
:101E2800628D92B22285002300934FF00073D2B2E4
:101E380029462046FFF79CFD638D9BB2002B32D0CC
:101E480032460A992046FFF7EFFD0028E1D12268C3
:101E5800636A591C61621B789362638D9BB2013B74
:101E68009BB26385238D013B9BB22385002BE3D175
:101E7800638D9BB2002BDFD000960A9B0022802145
:101E88002046FFF7FBFD90BB638D9BB2FF2BC7D9A4
:101E9800FF222285002300934FF0807329462046B5
:101EA800FFF766FDC8E732460A992046FFF790FE1D
:101EB800034630B1636C042B01D0032361E701238F
:101EC8005FE722682021D1612068426822F0FF7212
:101ED80022F48B3222F4FF7222F00102426084F86D
:101EE8004110002284F8422084F8402049E7032367
:101EF80047E700BF002000802DE9F04383B090F849
:101F08004150EDB2202D04D00223184603B0BDE89D
:101F1800F08390F84040012C01D10223F5E7984660
:101F280017460D4604464FF0010980F84090FEF729
:101F380093FE0646009019234A464FF40041204676
:101F4800FFF79CFD08B10323DFE7222384F8413023
:101F5800102384F84230002363646762A4F82A805F
:101F68006363638D9BB2FF2B0AD9FF222285424B04
:101F780000934FF0807329462046FFF7F9FC1FE0D5
:101F8800628D92B222853C4B00934FF00073D2B21F
:101F980029462046FFF7ECFC12E0636C042B01D0C5
:101FA8000323B2E70123B0E7628D92B222850023B2
:101FB80000934FF00073D2B229462046FFF7D8FCB1
:101FC800638D9BB2002B31D032460A992046FFF729
:101FD80026FE0028E1D1636A5A1C62622268526AAE
:101FE8001A70228D013A92B22285638D9BB2013B11
:101FF8009BB26385002AE3D1638D9BB2002BDFD0AF
:1020080000960A9B80212046FFF738FD90BB638D20
:102018009BB2FF2BC8D9FF222285002300934FF0E3
:10202800807329462046FFF7A3FCC9E732460A9980
:102038002046FFF7CDFD034630B1636C042B01D079
:10204800032362E7012360E722682021D161206829
:10205800426822F0FF7222F48B3222F4FF7222F0DF
:102068000102426084F84110002284F8422084F87A
:1020780040204AE7032348E7002400802DE9F04781
:1020880082B0BDF82C5090F84140E4B2202C04D026
:102098000223184602B0BDE8F0870A9C002C00F025
:1020A800CD80002D00F0CC8090F84040012C01D16B
:1020B8000223EEE7984691460E4604464FF0010A81
:1020C80080F840A0FEF7C8FD074600901923524645
:1020D8004FF400412046FFF7D1FC08B10323D8E7AD
:1020E800212384F84130402384F84230002363647C
:1020F8000A9A62626585636301970C9B0093434665
:102108004A4631462046FFF7DDFC60B1636C042B7C
:1021180004D0002384F840300323BAE7002384F86E
:1021280040305346B5E7638D9BB2FF2B0AD9FF2297
:102138002285002300934FF0807331462046FFF735
:1021480017FC23E0628D92B22285002300934FF0A2
:102158000073D2B231462046FFF70AFC16E0636CE2
:10216800042B01D0032394E7012392E7628D92B2F6
:102178002285002300934FF00073D2B231462046E7
:10218800FFF7F6FB638D9BB2002B33D03A460C99D0
:102198002046FFF749FC0028E1D12268636A591CF0
:1021A80061621B789362638D9BB2013B9BB263852E
:1021B800238D013B9BB22385002BE3D1638D9BB21A
:1021C800002BDFD000970C9B002280212046FFF7D0
:1021D80055FC002836D1638D9BB2FF2BC6D9FF2250
:1021E8002285002300934FF0807331462046FFF785
:1021F800BFFBC7E73A460C992046FFF7E9FC0346C0
:1022080030B1636C042B01D0032342E7012340E77C
:1022180022682021D1612068426822F0FF7222F4EE
:102228008B3222F4FF7222F00102426084F84110DE
:10223800002284F8422084F840202AE7012328E776
:10224800012326E7032324E72DE9F04782B0BDF8F0
:102258002C5090F84140E4B2202C04D002231846B8
:1022680002B0BDE8F0870A9C002C00F0C780002D62
:1022780000F0C68090F84040012C01D10223EEE71F
:10228800984691460E4604464FF0010A80F840A051
:10229800FEF7E2FC07460090192352464FF400412E
:1022A8002046FFF7EBFB08B10323D8E7222384F885
:1022B8004130402384F84230002363640A9A626202
:1022C8006585636301970C9B009343464A463146F4
:1022D8002046FFF73BFC60B1636C042B04D000235D
:1022E80084F840300323BAE7002384F8403053468B
:1022F800B5E7638D9BB2FF2B0AD9FF222285434B9A
:1023080000934FF0807331462046FFF731FB1CE005
:10231800628D92B222853D4B00934FF00073D2B28A
:1023280031462046FFF724FB0FE0628D92B22285EA
:10233800002300934FF00073D2B231462046FFF7D6
:1023480017FB638D9BB2002B34D000970C9B0022A7
:1023580004212046FFF792FB002853D1636A5A1CD8
:1023680062622268526A1A70228D013A92B22285FC
:10237800638D9BB2013B9BB26385002AE1D1638DDB
:102388009BB2002BDDD000970C9B80212046FFF7E5
:1023980075FB002838D1638D9BB2FF2BC5D9FF226E
:1023A8002285002300934FF0807331462046FFF7C3
:1023B800DFFAC6E73A460C992046FFF709FC0346C0
:1023C80030B1636C042B01D0032348E7012346E7AF
:1023D80022682021D1612068426822F0FF7222F42D
:1023E8008B3222F4FF7222F00102426084F841101D
:1023F800002284F8422084F8402030E701232EE7A9
:1024080001232CE703232AE7032328E7002400807D
:102418002DE9F04784B00024039490F84140E4B2D9
:10242800202C04D00223184604B0BDE8F0870468C5
:10243800A46914F4004F01D00223F4E790F8404057
:10244800012C00F08B801F469046894606460123E2
:1024580080F84030242380F841300023436422E090
:10246800C9F3090343F0007343F4005323E0AB6955
:1024780013F0100F43D0CDF800A03B4600222021D6
:102488003046FFF7FBFA00286AD133681022DA6178
:1024980033682022DA61039B5A1C0392434543D0D8
:1024A800039B984552D93268F368012BD8D0C9F3F9
:1024B800090343F420535360FEF7CEFB8246356888
:1024C800AB6913F0200FD2D1AB6913F0100FCED146
:1024D80096F84140E4B2A02CC9D0B7F1FF3FEED046
:1024E8002FB1FEF7B9FBA0EB0A008742E7D2202301
:1024F80086F84130002386F84030032393E7CDF86F
:1025080000A03B46002220213046FFF7B7FA0346D9
:1025180008B1032387E731682022CA6186F8412081
:10252800002286F840207EE73268536843F48043EF
:102538005360CDF800A03B46002220213046FFF72B
:102548009DFA78B933682022DA61A9E7202386F852
:102558004130002386F84030032364E7022362E712
:10256800032360E703235EE790F84130DBB2202BBA
:1025780001D00220704790F84030012B20D0012371
:1025880080F84030242380F841300268136823F033
:10259800010313600268136823F480531360026810
:1025A8001368194311600268136843F0010313604C
:1025B800202380F84130002380F8403018467047C7
:1025C8000220704790F84130DBB2202B01D0022066
:1025D800704790F84030012B1ED0012380F840301E
:1025E800242380F841300268136823F00103136044
:1025F8000268136823F4706343EA012111600268DA
:10260800136843F001031360202380F8413000234E
:1026180080F840301846704702207047002800F0C4
:10262800F38270B582B00446036813F0010F63D0DB
:10263800B44B5B6803F00C03042B46D0B14B5B68CA
:1026480003F00C03082B3BD06368B3F5803F00F020
:102658008E80002B40F0918003F1804303F5043312
:102668001A6822F480321A601A6822F480221A60EA
:10267800A44AD36A23F00F03A1680B43D3626368AB
:10268800002B00F09480FEF7E7FA05464FF400337C
:1026980093FAA3F39B4B19684FF4003393FAA3F30F
:1026A800B3FA83F303F01F03012202FA03F319427A
:1026B80022D1FEF7D1FA401B6428E7D90320B2E201
:1026C800904B5B6813F4803FBED04FF4003393FA0D
:1026D800A3F38C4B19684FF4003393FAA3F3B3FABE
:1026E80083F303F01F03012202FA03F3194203D014
:1026F8006368002B00F08A82236813F0020F00F051
:102708009C80804B5B6813F00C0F72D07D4B5B682C
:1027180003F00C03082B67D02369002B00F0CB8053
:10272800012292FAA2F3B3FA83F303F1845303F577
:1027380084139B001A60FEF78FFA0546022393FA6A
:10274800A3F3704B1968022393FAA3F3B3FA83F344
:1027580003F01F03012202FA03F3194240F09C80A0
:10276800FEF77AFA401B0228E8D903205BE2654AA3
:10277800136843F4803313607AE7B3F5A02F09D0C8
:10278800604B1A6822F480321A601A6822F4802298
:102798001A606DE703F18043A3F53C331A6842F4ED
:1027A80080221A601A6842F480321A6060E7FEF7E5
:1027B80053FA05464FF4003393FAA3F3514B1968C3
:1027C8004FF4003393FAA3F3B3FA83F303F01F0330
:1027D800012202FA03F319428ED0FEF73DFA401B9C
:1027E8006428E7D903201EE2464B5B6813F4803F58
:1027F80092D1022393FAA3F3424B1968022393FA66
:10280800A3F3B3FA83F303F01F03012202FA03F3DD
:10281800194204D02369934201D0012003E23948C8
:10282800036823F0F8036169F82292FAA2F2B2FA77
:1028380082F201FA02F213430360236813F0080FCF
:1028480000F08C80A369002B60D0012191FAA1F2DD
:10285800B2FA82F22C4B13449B001960FEF7FCF984
:102868000546022393FAA3F293FAA3F293FAA3F28A
:10287800244A516A93FAA3F3B3FA83F303F01F03CC
:10288800012202FA03F3194268D1FEF7E5F9401B69
:102898000228E6D90320C6E11A48036823F0F803A2
:1028A8006169F82292FAA2F2B2FA82F201FA02F20D
:1028B80013430360C1E7012393FAA3F3B3FA83F345
:1028C80003F1845303F584139B0000221A60FEF77A
:1028D800C3F90546022393FAA3F30A4B19680223A6
:1028E80093FAA3F3B3FA83F303F01F03012202FA66
:1028F80003F31942A1D0FEF7AFF9401B0228E9D92A
:10290800032090E10010024020819010012292FAE9
:10291800A2F2B2FA82F2C04B13449B0000221A6062
:10292800FEF79AF90546022393FAA3F293FAA3F263
:1029380093FAA3F2B94A516A93FAA3F3B3FA83F369
:1029480003F01F03012202FA03F3194206D0FEF72F
:1029580083F9401B0228E6D9032064E1236813F0B9
:10296800040F00F0B380AD4BDB6913F0805F26D114
:10297800AA4BDA6942F08052DA61DB6903F08053CE
:102988000193019B0125A64B1B6813F4807F18D087
:10299800E368012B29D073BB03F1804303F50433AB
:1029A8001A6A22F001021A621A6A22F004021A62F2
:1029B800E368002B5DD0FEF74FF9064647E0002597
:1029C800E1E7974A136843F480731360FEF744F90C
:1029D8000646934B1B6813F4807FD9D1FEF73CF968
:1029E800801B6428F5D903201DE18C4A136A43F043
:1029F80001031362DCE7052B09D0884B1A6A22F021
:102A080001021A621A6A22F004021A62D0E7834BA2
:102A18001A6A42F004021A621A6A42F001021A6241
:102A2800C6E77E4B196A022393FAA3F3B3FA83F33A
:102A380003F01F03012202FA03F3194245D1FEF7FE
:102A48000BF9801B41F28833984200F2E18002239F
:102A580093FAA3F293FAA3F3B3FA83F35B0943F06F
:102A68000203022BDDD0022393FAA3F36B4B596ABE
:102A7800D9E7FEF7F1F8064615E0684B196A022314
:102A880093FAA3F3B3FA83F303F01F03012202FAC4
:102A980003F3194219D0FEF7DFF8801B41F288339F
:102AA800984200F2B780022393FAA3F293FAA3F3B1
:102AB800B3FA83F35B0943F00203022BDDD0022350
:102AC80093FAA3F3554B596AD9E7B5BBE369002BD1
:102AD80000F0A880514A526802F00C02082A00F05F
:102AE800A480022B2FD04FF0807393FAA3F3B3FA8C
:102AF80083F303F1845303F584139B0000221A60C7
:102B0800FEF7AAF804464FF0007393FAA3F3434B79
:102B180019684FF0007393FAA3F3B3FA83F303F041
:102B28001F03012202FA03F319426BD0FEF794F84F
:102B3800001B0228E7D9032075E0384AD36923F03F
:102B48008053D361C2E74FF0807393FAA3F3B3FACB
:102B580083F303F1845303F584139B0000221A6066
:102B6800FEF77AF805464FF0007393FAA3F32B4B60
:102B780019684FF0007393FAA3F3B3FA83F303F0E1
:102B88001F03012202FA03F3194206D0FEF764F884
:102B9800401B0228E7D9032045E020494B6823F46D
:102BA8007413626A206A024313434B604FF08073C8
:102BB80093FAA3F3B3FA83F303F1845303F584136D
:102BC8009B0001221A60FEF747F804464FF0007395
:102BD80093FAA3F3114B19684FF0007393FAA3F318
:102BE800B3FA83F303F01F03012202FA03F3194235
:102BF80006D1FEF731F8001B0228E7D9032012E0BE
:102C0800002010E000200EE00120704701200AE0BB
:102C1800032008E0032006E0208190100010024005
:102C280000700040002002B070BD0120FBE700BF2B
:102C3800164B5B6803F00C02082A24D103F47011C8
:102C48004FF4701292FAA2F2B2FA82F221FA02F268
:102C58000F49885C0D4AD26A02F00F020F2191FADF
:102C6800A1F1B1FA81F1CA400A498A5C13F4803FA4
:102C780003D1094B03FB00F07047084BB3FBF2F399
:102C880003FB00F070470548704700BF0010024082
:102C9800E0950008F095000800093D0000127A0050
:102CA800002800F0C08070B50446614B1B6803F033
:102CB80007038B420CD25E4A136823F007030B43C9
:102CC8001360136803F00703994201D0012070BD17
:102CD800236813F0020F06D0564A536823F0F00316
:102CE800A068034353600D46236813F0010F5AD0C0
:102CF8006368012B2DD0022B40D0022292FAA2F257
:102D08004C4A1068022292FAA2F2B2FA82F202F057
:102D18001F02012101FA02F2104200F086804549A3
:102D28004A6822F0030213434B60FDF795FF0646FD
:102D3800404B5B6803F00C036268B3EB820F32D040
:102D4800FDF78AFF801B41F288339842F0D90320AF
:102D580070BD4FF4003292FAA2F2364A10684FF46E
:102D6800003292FAA2F2B2FA82F202F01F020121B4
:102D780001FA02F21042D2D1012070BD4FF0007268
:102D880092FAA2F22B4A10684FF0007292FAA2F25D
:102D9800B2FA82F202F01F02012101FA02F2104295
:102DA800BDD1012070BD224B1B6803F007039D4273
:102DB8000CD21F4A136823F007032B4313601368D0
:102DC80003F007039D4201D0012070BD236813F072
:102DD800040F06D0174A536823F4E063E1680B43F5
:102DE8005360236813F0080F07D0124A536823F47E
:102DF8006053216943EAC1035360FFF719FF0D4B84
:102E08005B6803F0F003F02292FAA2F2B2FA82F2BF
:102E1800D340094AD35CD840084B18600020FDF71E
:102E2800D7FE002070BD01207047012070BD00BF93
:102E38000020024000100240089600086C000020A4
:102E4800014B1868704700BF6C00002008B5FFF7F9
:102E5800F7FF074B5B6803F4E0634FF4E06292FA14
:102E6800A2F2B2FA82F2D340024AD35CD84008BD3B
:102E7800001002401896000808B5FFF7E1FF074B5D
:102E88005B6803F460534FF4605292FAA2F2B2FA0C
:102E980082F2D340024AD35CD84008BD00100240F9
:102EA80018960008F0B583B00446036813F4803F11
:102EB80044D0644BDB6913F0805F79D1614BDA69E8
:102EC80042F08052DA61DB6903F080530193019B81
:102ED80001255D4B1B6813F4807F6BD0594B1B6A2F
:102EE80013F4407321D0626802F4407293421CD0FC
:102EF8005448016A21F440764FF4803393FAA3F2E0
:102F0800B2FA82F2514F3A4492004FF0010EC2F8E1
:102F180000E093FAA3F3B3FA83F33B449B00002247
:102F28001A60066211F0010F58D1464A136A23F459
:102F3800407361680B431362002D7AD1236813F044
:102F4800010F06D03F4A136B23F00303A1680B431C
:102F58001363236813F0200F06D03A4A136B23F04B
:102F68001003E1680B431363236813F0800F06D046
:102F7800344AD36A23F4F87321690B43D362236874
:102F880013F4805F06D02F4A136B23F480736169B2
:102F98000B431363236813F4804F51D0294A136BF2
:102FA80023F48053A1690B431363002003B0F0BDE1
:102FB80000258EE7244A136843F480731360FDF7F5
:102FC8004BFE0646204B1B6813F4807F86D1FDF725
:102FD80043FE801B6428F5D90320E7E7FDF73CFE94
:102FE800064614E0174B196A022393FAA3F3B3FABF
:102FF80083F303F01F03012202FA03F3194294D169
:10300800FDF72AFE801B41F28833984216D8022326
:1030180093FAA3F293FAA3F3B3FA83F35B0943F0A9
:103028000203022BDED0022393FAA3F3054B596A5D
:10303800DAE7D36923F08053D3617FE70320B5E74C
:103048000020B3E70010024000700040008190109B
:103058000268D36843F00103D3600268136843F041
:10306800010313600020704770477047704770472E
:1030780010B5044603681A6912F0020F11D0DA6815
:1030880012F0020F0DD06FF002021A6101230377CC
:1030980003689B6913F0030F79D0FFF7E6FF00235D
:1030A800237723681A6912F0040F12D0DA6812F035
:1030B800040F0ED06FF004021A61022323772368ED
:1030C8009B6913F4407F68D02046FFF7CEFF0023AA
:1030D800237723681A6912F0080F12D0DA6812F001
:1030E800080F0ED06FF008021A61042323772368B3
:1030F800DB6913F0030F57D02046FFF7B6FF002314
:10310800237723681A6912F0100F12D0DA6812F0C8
:10311800100F0ED06FF010021A610823237723686E
:10312800DB6913F4407F46D02046FFF79EFF00235B
:10313800237723681A6912F0010F03D0DA6812F0B6
:10314800010F3FD123681A6912F0800F03D0DA68A3
:1031580012F0800F3DD123681A6912F4807F03D0E2
:10316800DA6812F0800F3BD123681A6912F0400F19
:1031780003D0DA6812F0400F39D123681A6912F0C7
:10318800200F03D0DA6812F0200F37D110BDFFF7F7
:103198006BFF2046FFF76AFF81E72046FFF764FFD1
:1031A8002046FFF763FF92E72046FFF75DFF2046C2
:1031B800FFF75CFFA3E72046FFF756FF2046FFF71F
:1031C80055FFB4E76FF001021A61204601F044FD93
:1031D800B8E76FF080021A61204600F0A4F8BAE759
:1031E8006FF480721A61204600F09EF8BCE76FF019
:1031F80040021A612046FFF73AFFBEE76FF020024F
:103208001A61204600F08EF8C0E700000368234AE0
:1032180090423DD0B0F1804F3AD0A2F5943290421E
:1032280036D01E4A904212D0B0F1804F0FD0A2F58E
:10323800943290420BD002F59E32904207D002F5AC
:103248008062904203D002F58062904203D123F459
:103258004073CA68134323F080034A691343036029
:103268008B68C3620B6883620C4B98420BD003F5E2
:10327800A053984207D003F58063984203D003F522
:103288008063984201D10B6903630123436170474E
:1032980023F070034A681343C3E700BF002C0140C2
:1032A800A8B110B5044690F83D305BB1022384F80C
:1032B8003D30211D2068FFF7A9FF012384F83D3028
:1032C800002010BD80F83C3003F05EF8EEE70120E6
:1032D8007047000090F83C30012B1FD030B4012318
:1032E80080F83C3004686368A2680D4DAC4210D089
:1032F80023F070030D682B4322F0800289680A438B
:10330800636003689A60002380F83C30184630BC3C
:10331800704723F470034D682B43E9E70220704798
:10332800002C01407047704770470268136823F407
:10333800907313600268936823F00103936020235D
:1033480080F86A30704790F86A30DBB2202B01D0E1
:1033580002207047002947D0002A47D090F86830EB
:10336800012B45D0012380F868304165A0F858202A
:10337800A0F85A208368B3F5805F06D0A3B9036923
:1033880073B9FF23A0F85C3011E0036923B940F258
:10339800FF13A0F85C300AE0FF23A0F85C3006E0D9
:1033A8007F23A0F85C3002E0B3F1805F12D00023E5
:1033B800C366222280F86A2080F8683001688A682B
:1033C80042F001028A6001680A6842F490720A6059
:1033D8001846704703691BB97F23A0F85C30E6E7FD
:1033E8003F23A0F85C30E2E70120704701207047D6
:1033F800022070477047704708B5406A0023A0F85C
:103408005A30A0F85230FFF7F6FF08BD38B5044629
:1034180083680269134342691343C269134301680D
:103428000868644A024013430B602268536823F417
:103438004053E1680B435360A369226A1343216830
:103448008A6822F4306213438B6025685A4B9D4288
:1034580015D05A4B9D4229D003F580639D4221D057
:103468001023E269B2F5004F22D0082B00F29F80AA
:10347800DFE803F066717C9D889D9D9D930003F5B0
:1034880058431B6B03F00303032B09D8DFE803F051
:103498000204060C0023E4E70423E2E70823E0E73C
:1034A8001023DEE70023DCE70223DAE70023D8E76E
:1034B800082B42D8DFE803F0051722412D4141418E
:1034C8003800FFF7C3FC6268530803EB4003B3FB03
:1034D800F2F39BB2002023F00F02C3F3420313431D
:1034E8002268D36038BDFFF7C7FC6268530803EB56
:1034F8004003B3FBF2F39BB20020ECE76268530889
:1035080003F5740303F51053B3FBF2F39BB20020E9
:10351800E1E7FFF78DFB6268530803EB4003B3FB59
:10352800F2F39BB20020D6E76268530803F58033B4
:10353800B3FBF2F39BB20020CDE701200023CAE7DA
:10354800FFF784FC636800EB5300B0FBF3F080B234
:10355800E860002038BDFFF78FFC636800EB53007C
:10356800B0FBF3F080B2E860002038BD6268530811
:1035780003F5F40303F59053B3FBF2F39BB2EB604E
:10358800002038BDFFF754FB636800EB5300B0FB25
:10359800F3F080B2E860002038BD6268530803F594
:1035A8000043B3FBF2F39BB2EB60002038BD01206F
:1035B80038BD00BFF369FFEF003801400044004008
:1035C800436A13F0010F06D00268536823F40033EE
:1035D800816A0B435360436A13F0020F06D00268F6
:1035E800536823F48033C16A0B435360436A13F072
:1035F800040F06D00268536823F48023016B0B4341
:103608005360436A13F0080F06D00268536823F426
:103618000043416B0B435360436A13F0100F06D00D
:103628000268936823F48053816B0B439360436A69
:1036380013F0200F06D00268936823F40053C16B7F
:103648000B439360436A13F0400F0AD00268536833
:1036580023F48013016C0B435360036CB3F5801F94
:103668000BD0436A13F0800F06D00268536823F426
:103678000023816C0B43536070470268536823F43E
:10368800C003416C0B435360EBE72DE9F04105465D
:103698000F4616469846069C2B68DB6937EA0303F3
:1036A8000CBF01230023B3421ED1B4F1FF3FF3D076
:1036B8002CB1FDF7D1FAA0EB08008442ECD22A68BD
:1036C800136823F4D07313602A68936823F0010306
:1036D8009360202385F8693085F86A30002385F8DF
:1036E80068300320BDE8F0810020BDE8F0812DE9B5
:1036F800F04182B01E4690F86930DBB2202B04D02E
:103708000223184602B0BDE8F08104460D469046F3
:1037180000294ED0002A4ED090F86830012B01D1F4
:103728000223EEE7012380F868300023C3662123D3
:1037380080F86930FDF790FA0746A4F85080A4F89D
:10374800528003E023682A781A850135B4F852308C
:103758009BB2E3B1B4F852309BB2013B9BB2A4F8E0
:10376800523000963B46002280212046FFF78DFF0D
:1037780018BBA368B3F5805FE4D12369002BE1D1BE
:10378800226835F8023BC3F308031385DEE7009689
:103798003B46002240212046FFF777FF034608B149
:1037A8000323AEE7202284F86920002284F86820E9
:1037B800A7E70123A5E70123A3E70323A1E730B582
:1037C80083B004460023C366FDF746FA054623681E
:1037D8001B6813F0080F0ED123681B6813F0040F41
:1037E80017D1202384F8693084F86A30002084F8DF
:1037F800680003B030BD6FF07E430093034600229B
:103808004FF400112046FFF740FF0028E4D00320C2
:10381800EFE76FF07E4300932B4600224FF48001C0
:103828002046FFF732FF0028DBD00320E1E778B31A
:1038380010B5044690F869300BB3242384F8693036
:103848002268136823F0010313602046FFF7DEFDAA
:1038580001281FD0636ABBB92268536823F49043D8
:1038680053602268936823F02A03936022681368E0
:1038780043F0010313602046FFF7A1FF10BD80F855
:10388800683002F0A1FDD8E72046FFF799FEE3E78C
:103898000120704710BD90F86930DBB2212B01D0B0
:1038A80002207047B0F852309BB293B18368B3F5E9
:1038B800805F1AD00268C36C591CC1641B781385D9
:1038C800B0F852309BB2013B9BB2A0F852300020B6
:1038D80070470268136823F0800313600268136856
:1038E80043F040031360002070470369002BE1D1C7
:1038F800C36C02681B88C3F308031385C36C0233C7
:10390800C364DDE708B501680B6823F040030B606A
:10391800202380F86930FFF76DFD002008BDB0F85E
:103928005C2090F86A30DBB2222B06D002689369DB
:1039380043F0080393610220704710B503689B8C1D
:103948009BB28168B1F5805F0FD0416D4C1C446516
:10395800D2B21A400A70B0F85A309BB2013B9BB2FF
:10396800A0F85A305BB1002010BD01690029ECD1E4
:10397800416D1A400A80436D02334365EBE70268E4
:10398800136823F4907313600268936823F00103AB
:103998009360202380F86A3001F064F9002010BD9C
:1039A80038B504460268D369116813F00F0505D1CC
:1039B80013F0200F02D011F0200F60D19068002D75
:1039C80072D010F0010502D111F4907F6CD013F081
:1039D800010F07D011F4807F04D001201062E26E3D
:1039E8000243E26613F0020F07D035B122680220C5
:1039F8001062E26E42F00402E26613F0040F07D090
:103A080035B1226804201062E26E42F00202E266DA
:103A180013F0080F09D011F0200F00D12DB1226842
:103A280008201062E26E0243E266E26E002A4DD080
:103A380013F0200F02D011F0200F23D1E36E13F002
:103A4800080F04D123689B6813F0400F26D0204646
:103A5800FFF76BFC23689A6812F0400F1AD09A6837
:103A680022F040029A60636E83B1234A5A63606E03
:103A7800FDF778FE50B3606E436B984738BDFFF78B
:103A88004EFF38BD2046FFF74AFFD7E72046FFF72D
:103A9800B2FC38BD2046FFF7AEFC38BD2046FFF724
:103AA800AAFC0023E36638BD13F4801F02D010F48B
:103AB800800F0CD113F0800F02D011F0800F12D1BB
:103AC80013F0400F02D011F0400F10D138BD4FF461
:103AD80080131362202384F8693084F86A30204602
:103AE80000F00CF838BD2046FFF7D5FE38BD20465B
:103AF800FFF708FFEAE700BF01340008704790F9B4
:103B0800003023F01C03CA78920002F01C02134311
:103B18000370704790F9003003F01F030A7943EAF5
:103B280042130370704790F9003023F01C030A78A1
:103B3800920002F01C0213430370704790F90030A2
:103B480003F01F034A7843EA42130370704703786F
:103B580003F007038B708378C3F382030B708378B9
:103B68005B094B70C378C3F38203CB70C3785B09DE
:103B78000B7170472DE9F84F0C464068FCF76AFC5A
:103B8800804689460022374BFCF7DAFC06460F468A
:103B98002088FCF75FFC82468B460022324BFCF7FC
:103BA800CFFC02460B4630463946FCF715FB064665
:103BB8000F46B4F90200FCF75DFC02460B4630469E
:103BC8003946FCF7BDFC06460F460022274B404607
:103BD8004946FCF7B5FC804689460022244B5046EE
:103BE8005946FCF7ADFC02460B4640464946FCF7F1
:103BF800F3FA02460B46FCF7A3FC80468946B4F963
:103C08000400FCF737FC02460B4640464946FCF7E1
:103C180097FC02460B4630463946FCF7DFFA064663
:103C28000F46FCF73DFF60620022124B30463946D2
:103C3800FCF7B0FD04460D4600220F4BFCF7F2FEE0
:103C480048B900220D4B20462946FCF709FF20B150
:103C580000240A4D01E00024074D20462946BDE80E
:103C6800F88F00BF0000103F0000503F0000E03E0A
:103C78000000203F0000B440000044C00040554010
:103C88002DE9F84F05460C46486AFCF7F3FB00227D
:103C9800914BFCF755FC0022904BFCF79DFA064629
:103CA8000F4602460B46FCF74BFC80468946B4F9A2
:103CB8001000FCF7DFFB02460B4640464946FCF77E
:103CC8003FFC00224FF07C53FCF73AFC80468946C3
:103CD800B4F90E00FCF7CEFB02460B4630463946D7
:103CE800FCF72EFC02460B46FCF778FA02460B4618
:103CF80040464946FCF772FA0022794BFCF720FC53
:103D080080468946B4F90C00FCF7B4FB0022754BD9
:103D1800FCF716FC02460B4640464946FCF75EFA9D
:103D280082468B46B4F90A00FCF7A4FB02460B4610
:103D380030463946FCF704FC02460B463046394605
:103D4800FCF7FEFB00224FF07B53FCF7F9FB8046A3
:103D58008946B4F90800FCF78DFB02460B4630464D
:103D68003946FCF7EDFB02460B4640464946FCF750
:103D780035FA00224FF07B53FCF7E2FB00224FF0AC
:103D88007C53FCF7DDFB0022574BFCF727FA06466D
:103D98000F46E088FCF75EFB02460B463046394684
:103DA800FCF7CEFB8046894600220023FCF730FE54
:103DB800002877D12868FCF74DFB02460B46002007
:103DC8004A49FCF709FA06460F460022484B504676
:103DD8005946FCF7B5FB02460B4630463946FCF718
:103DE800FBF937A3D3E90023FCF7AAFB42464B466D
:103DF800FCF7D0FC06460F46B4F91600FCF73AFB70
:103E080002460B4630463946FCF79AFB02460B46FB
:103E180030463946FCF794FB00224FF07853FCF704
:103E28008FFB80468946B4F91400FCF723FB024651
:103E38000B4630463946FCF783FB00224FF07C5393
:103E4800FCF77EFB02460B4640464946FCF7C6F99E
:103E580080468946B4F91200FCF70CFB02460B4673
:103E680040464946FCF7BAF90022224BFCF768FBAA
:103E780002460B4630463946FCF7B0F904460D4673
:103E880011A3D3E90023FCF7CDFD90B910A3D3E922
:103E9800002320462946FCF7E3FD30B10CA5D5E9FF
:103EA800004502E008A5D5E9004520462946BDE8B9
:103EB800F88F05A5D5E90045F7E700BFAFF3008007
:103EC80000000000006AB84000000000004CDD401F
:103ED8000000000000DBFA400000E03F0040EF4037
:103EE8000000D03F0000F0400000F03F00003041EB
:103EF8000000303F0000B03F2DE9F04784B0804615
:103F08008A46486AFCF7B6FA0022584BFCF764F96F
:103F180006460F46BAF91E00FCF7ACFA0022544BCD
:103F2800FCF70EFB04460D46BAF92000FCF7A2FA8E
:103F38000022504BFCF704FB02460B46304639463C
:103F4800FCF7FEFA02460B4620462946FCF746F9DE
:103F580004460D46D8F80800FCF77CFA22462B46A2
:103F6800FCF73AF9CDE90001BAF91A00FCF782FA30
:103F78000022414BFCF7E4FACDE902019AF81C0053
:103F8800FCF768FA00223D4BFCF7DAFA02460B46CA
:103F980030463946FCF7D4FA0022394BFCF71EF9B3
:103FA80004460D469AF92200FCF764FA0022334BC6
:103FB800FCF7C6FA02460B4630463946FCF7C0FA0B
:103FC80002460B4620462946FCF7BAFA00222C4B3B
:103FD800FCF704F980468946DDE90223DDE90001A2
:103FE800FCF7AEFA06460F4642464B46204629469F
:103FF800FCF7A6FA02460B4630463946FCF7A0FA0B
:1040080004460D469AF81800FCF724FA02460B46B7
:1040180020462946FCF794FA00224FF07B53FCF720
:104028008FFA02460B4600201549FCF7D5F80246E0
:104038000B4620462946FCF783FA04460D46002223
:10404800104BFCF70DFD48B90022002320462946F5
:10405800FCF7E8FC20B10024002501E00024094D0C
:104068002046294604B0BDE8F08700BF00C0F240F2
:10407800000050400000103F0000F03E0000503E9D
:104088000000F03F0000594070B4012408E06500CA
:10409800013D065D4E55155D01F814500134E4B23A
:1040A8009C42F4D370BC70474278037843EA0223F9
:1040B8000B82C278837843EA02234B8242790379E0
:1040C80043EA02238B82C279837943EA0223CB82B3
:1040D800427A037A43EA02230B83C27A837A43EA59
:1040E80002234B83427B037B43EA02238B83C27BFD
:1040F800837B43EA0223CB83427C037C43EA02238B
:104108000B84C27C837C43EA02234B84427D037D7B
:1041180043EA02238B84C27D837D43EA0223CB8456
:10412800437E81F8283070474278037843EA0223B7
:104138004B85837881F82C3090F903309BB21B01B2
:104148001BB2027902F00F021343CB8590F90530B8
:104158009BB21B011BB2027943EA12130B8690F93A
:10416800063081F832307047084201D1002070478C
:104178000120704750B142685AB1826862B1C36881
:104188000BB1002070474FF0FF3070474FF0FF3001
:1041980070474FF0FF3070474FF0FF3070472DE900
:1041A800F0410546884617461C461846FFF7E2FFC9
:1041B800034660B9A378012B01D045F080056668F5
:1041C8003B46424629466078B047034610B9184630
:1041D800BDE8F0816FF00303F9E730B589B0044614
:1041E8000023019302930393049305930693ADF878
:1041F8001C3003461A2201A98820FFF7D0FF054684
:1042080010B1284609B030BD214601A8FFF74CFF80
:104218002346072201A9E120FFF7C1FF0546002830
:10422800EFD1214601A8FFF77FFFEAE7F0B587B095
:1042380005460F4614461E460A2A00D90A24304667
:10424800FFF798FF48BB5DB36FB37CB33B788DF83D
:104258000430B378012B09D0002205E0A95C01F0F5
:104268007F01A9540132D2B29442F7D8012C12D955
:1042780023463A4601A92846FFF706FF6400013C99
:10428800A3B2B46801AA29787078A047034680B918
:10429800184607B0F0BDA3B2F3E74FF0FF33F7E7D6
:1042A8004FF0FF33F4E74FF0FF33F1E76FF002030D
:1042B800EEE76FF00303EBE710B582B00C46F2238C
:1042C8008DF80530837803F0070302A901F8013D52
:1042D800234601220DF10500FFF7A8FF034610B1A0
:1042E800184602B010BDF4208DF8050023460122BF
:1042F8000DF10601FFF753FF03460028F0D12346CE
:1043080001220DF106010DF10500FFF78FFF0346AD
:10431800E6E770B582B005460E461446F4208DF8DF
:104328000700134601220DF10601FFF738FF034687
:1043380070B915F0010F0ED115F0020F11D12346F7
:1043480001220DF106010DF10700FFF76FFF03468B
:10435800184602B070BD31460DF10600FFF7E3FBC9
:10436800EAE731460DF10600FFF7E8FBE7E770B52D
:1043780004460D46164610F0040F04D1012014F02F
:10438800030F05D170BD11462846FFF795FFF6E7E4
:10439800324629462046FFF7BCFFF3E770B582B0E6
:1043A80005460E461446F5208DF8070013460122EF
:1043B8000DF10601FFF7F3FE034670B915F0080F7B
:1043C8000ED115F0100F11D1234601220DF106016F
:1043D8000DF10700FFF72AFF0346184602B070BD2B
:1043E80031460DF10600FFF78AFBEAE731460DF189
:1043F8000600FFF78FFBE7E738B504460D460A4687
:1044080001461F20FFF7B3FF034608B1184638BD21
:104418002A4621461F20FFF7C1FF0346F6E730B5BD
:1044280083B005460C46F4208DF807000B460122A0
:104438000DF10601FFF7B3FE034610B1184603B0AD
:1044480030BD9DF8060020F0030040B205F00305DA
:10445800284302A901F8020D234601220DF10700A5
:10446800FFF7E4FE0346E9E738B505460C4608467B
:10447800FFF780FE034608B1184638BD23460122DF
:104488002946F420FFF78BFE03462A7802F0030240
:104498002A70F1E730B583B00546E0238DF8073080
:1044A800B6238DF80630FFF765FE044610B12046A6
:1044B80003B030BD2B4601220DF106010DF10700B6
:1044C800FFF7B4FE0446EB6802209847EFE770B5A3
:1044D80082B0054600238DF80730FFF74BFE0646ED
:1044E80010BB052409E02846FFF777FE06461AE0C8
:1044F800EB6801209847013CE4B2A4B12B460122A5
:104508000DF10701D020FFF74AFE06460028EFD13B
:104518009DF80730602BEBD12B702846FFF7BAFFC8
:1045280006460028DFD014B1304602B070BD6FF0E7
:104538000106F9E710B584B004460346042203A92E
:10454800F220FFF72CFE034610B1184604B010BD48
:1045580001A903A8FFF7FBFA2046FFF79BFF0346D4
:104568000028F2D1214601A8FFF746FF0346ECE7F1
:1045780070B582B006460D460846FFF7FBFD0446B7
:1045880010B1204602B070BD29460DF10700FFF7B3
:104598006BFF044610B99DF80730B3B9002CF0D171
:1045A80031460720FFF7E0FDA0B9002CE9D13146DC
:1045B8001820FFF7D9FD0028E3D02A4605F1380175
:1045C8003046FFF7EBFE0446DBE72846FFF7B2FF6D
:1045D8000446E3E72A4605F138013046FFF7C7FEEF
:1045E8000446E2E730B583B005460C460846FFF7B7
:1045F800C1FD034610B1184603B030BD21460DF188
:104608000700FFF731FF034610B99DF807203AB9B4
:10461800002BF0D121462846FFF701FF0346EAE7C1
:104628002046FFF787FF0346F2E710B40478437883
:104638001B01827843EA043343EA12130B60C478FF
:1046480003791B01427943EA043343EA12134B60AE
:104658008279C37943EA02238B605DF8044B704783
:1046680061B3F8B50F4662B373B31E4614460546E8
:1046780000220023C4E90223C4E90023C4E9042377
:1046880010F0070F13D115F0010F05D03146384649
:10469800FFF7F6FAC4E9000115F0040F17D0314608
:1046A8003846FFF729FCC4E904010020F8BD31466B
:1046B8003846FFF75FFAC4E90201E4E74FF0FF303C
:1046C80070474FF0FF30F8BD4FF0FF30F8BD0020C5
:1046D800F8BD70B586B006460D461446002304930F
:1046E80005930193029303931046FFF743FDC0B966
:1046F800D5B12346082204A9F720FFF750FD034649
:1047080010B1184606B070BD01A904A8FFF78DFFC7
:1047180004F110032A4601A93046FFF7A1FF03461A
:10472800EFE74FF0FF33ECE74FF0FF33E9E710B561
:1047380044688068A04710BD10B504688068A04729
:1047480010BD000007EE900AB8EEE70ADFED027A26
:1047580020EE270A704700BF0000803D30B583B0C7
:1047680004460D46012301AA1F21FFF7E0FF034677
:1047780010B1184603B030BD9DF8043065F38713B7
:1047880002AA02F8043D01231F212046FFF7D4FFA7
:104798000346EEE730B583B005460C46012301AA6F
:1047A8002021FFF7C4FF0346E0B1BBB95CB99DF80F
:1047B80004306FF3C3038DF804309DF8003043F0E4
:1047C80008038DF80030012C14D0022C1FD00123CF
:1047D80001AA20212846FFF7AFFF034623B3184656
:1047E80003B030BD01236A4623212846FFF79FFF07
:1047F8000346DAE79DF804306FF3C3038DF80430FD
:104808009DF800306FF3C3038DF80030DDE79DF8A5
:10481800043043F008038DF804309DF800306FF33E
:10482800C3038DF80030D2E701236A4623212846C6
:10483800FFF782FF0346D2E730B583B004460D4642
:10484800012301AA2021FFF772FF034610B1184681
:1048580003B030BD9DF8043065F3071302AA02F8CF
:10486800043D012320212046FFF766FF0346EEE7BB
:1048780030B583B004460D46012301AA2321FFF772
:1048880056FF034610B1184603B030BD9DF80430FA
:1048980065F3051302AA02F8043D012323212046EB
:1048A800FFF74AFF0346EEE730B583B004460D46EE
:1048B800012301AA2321FFF73AFF034610B1184646
:1048C80003B030BD9DF8043065F3C71302AA02F89F
:1048D800043D012323212046FFF72EFF0346EEE780
:1048E80010B582B00C46012301AA2721FFF71FFF4C
:1048F8009DF80430C3F3C003237002B010BD08B59F
:1049080006230A462821FFF712FF08BD70B588B0B4
:10491800002403940494059406940794204B5A6940
:1049280042F400325A615A6902F400320092009A45
:104938005A6942F400225A615A6902F4002201922B
:10494800019A5A6942F480225A615B6903F4802310
:104958000293029B134E224640F202313046FCF786
:10496800F1FF22464FF4F8514FF09040FCF7EAFF70
:1049780040F202330393012504950594069403A994
:104988003046FCF715FF4FF4F8530393049505944C
:10499800069403A94FF09040FCF70AFF08B070BDD9
:1049A800001002400004004808B50948094B03609C
:1049B8004FF4E133436000238360C36003610C223A
:1049C80042618361C36103624362FEF730FF08BD41
:1049D8002804002000380140F0B585B00024019477
:1049E800029403941A4D4FF0A0432B606C6010237F
:1049F800AB602C61EC616C622C630127EF62EC60A8
:104A08002F626C6304236B61AC61AC632846FCF7CE
:104A1800C3F9019401A92846FCF7A0FD0D490F60D0
:104A28004F60CC6006238B600C614C610A4E0222F9
:104A380032607760F460B360346174612846FCF7D3
:104A4800CBFB31462846FCF7C7FB05B0F0BD00BFDD
:104A5800D4030020640200207C02002038B50D4CED
:104A68000D4B23600D4B63600025A5600123E360B7
:104A780025616561A561E56125622046FDF71AF9A2
:104A880029462046FDF770FD29462046FDF79AFD88
:104A980038BD00BF88030020005400400E090020E4
:104AA80030B585B00025019502950395094C0A4B50
:104AB80023604FF4FA536360A560E360A561204664
:104AC800FEF7EEFB0195039501A92046FEF702FCCF
:104AD80005B030BD980400200010004030B597B0F4
:104AE800282200210CA801F071FD002407940894E5
:104AF80009940A940B9400940194029403940494E6
:104B08000594069402250C95012310931023119304
:104B180013954FF4601315930CA8FDF77FFD0F2331
:104B28000793089509944FF480630A930B942946D8
:104B380007A8FEF7B5F8A123009302944FF48073F9
:104B4800049303946846FEF7ADF917B030BD08B575
:104B5800FCF764F8FFF7C2FFFFF7D8FEFFF724FF62
:104B6800FFF73AFFFFF77AFFFFF79AFF01F0A8F87F
:104B780000F054FB01F026FB00F062FD01F06AF939
:104B8800F6E738B50546FCF767F80446FCF764F81D
:104B9800001BA842FAD338BD2DE9F04184B017466E
:104BA800984604AA02F8011D400000F0FE04094DD1
:104BB80064260096012321462846FDF7D9F8009679
:104BC80043463A46611C2846FDF796F9002004B092
:104BD800BDE8F0818803002010B584B0400064244B
:104BE80002940193009201230A4600F0FE01034853
:104BF800FDF744FA002004B010BD00BF8803002070
:104C080010B584B0084CA04202D0002004B010BDFA
:104C18004FF47A74029401930092012341F08002C8
:104C28003121FDF72BFAF0E78803002010B584B096
:104C3800084CA04202D0002004B010BD4FF47A7492
:104C4800029401930092012341F080023121FDF783
:104C5800FBFAF0E7880300200122014B1A70704725
:104C68002803002008B502681A4B9A4200D008BDF4
:104C7800194B1B78DBB2632B02D90022164B1A7032
:104C8800164B1B78DBB2242B14D0144B1B78DBB2E9
:104C98000A2B15D010490B78DBB25A1CD2B20A7015
:104CA8000E490A78D2B20E48C25401220D48FEF7C6
:104CB8004AFBDCE70023084A13700B4A1370E4E749
:104CC80001220A4B1A70044B1B78DBB2064A137098
:104CD800E0E700BF003801404F030020DD05002059
:104CE8007405002028040020DA0200204E0300206A
:104CF80000B585B00622014602A801F085FC1C4BD0
:104D080093E803000090ADF80410C0B29DF8083095
:104D1800984203D0002005B05DF804FB9DF80120FF
:104D28009DF809309A4201D00020F4E79DF802204E
:104D38009DF80A309A4201D00020ECE79DF8032044
:104D48009DF80B309A4201D00020E4E79DF804203A
:104D58009DF80C309A4201D00020DCE79DF8052030
:104D68009DF80D309A4201D00020D4E70120D2E707
:104D78000096000810B44278022302E0C45C624046
:104D880001334C1EA342F9DB10465DF8044B704713
:104D980070B582B004462A2101F04BFCF0B1051B26
:104DA800691C2046FFF7E6FF064630238DF80030E1
:104DB80078238DF801302C4463788DF80230A3787D
:104DC8008DF80330102201A9684602F0E1FA864204
:104DD80002D0002002B070BD0120FBE70020F9E7F7
:104DE80070B588B005461E220021684601F0EEFB2A
:104DF8002C21681C01F0F2FB0646002415E0302344
:104E0800ADF800300022424B1A551AE0404B5B784F
:104E180083BB1E220021684601F0D8FB751C2C219B
:104E2800284601F0DBFB064601340D2C6EDC721BB4
:104E3800002AE4DD2946684601F0E6FB0122344BEE
:104E48001A55631E082BE4D801A252F823F000BFBC
:104E5800154E00088F4E0008AD4E0008C54E0008DC
:104E6800E34E00081B4E00081B4E00081B4E0008AE
:104E7800FB4E00082748002303604360038169460E
:104E880001F0BAFBC5E7224B9B78002BC1D0224822
:104E98000023036043608360C3600361694601F0D7
:104EA800ABFBB6E71A4BDB78002BB2D01B480023CC
:104EB80003600371694601F09FFBAAE7144B1B7955
:104EC800002BA6D016480023036043608360C360AC
:104ED8000361694601F090FB9BE70D4B5B79002B62
:104EE80097D01048002303600371694601F084FBE2
:104EF8008FE7074B5B7A002B8BD00B4800230360AE
:104F080043600381694601F077FB82E708B070BD12
:104F18004003002054030020F00200209C020020DF
:104F28000403002094020020A40200202DE9F04D83
:104F3800AC4801F01EFB0022AB4B51EC100BFBF709
:104F480029FC04460D4645EC104B03F009FA51ECD8
:104F5800100BFBF7A5FDFBF78DFA06460F46024638
:104F68000B4620462946FBF737F900229E4BFBF7F4
:104F7800E7FA00229D4BFBF70DFC02460B469C49C5
:104F8800C1E9002330463946FBF728F982468B46AB
:104F9800984BC3E900AB2E22974B83F837200024A7
:104FA8001CE0934D0022954BD5E90001FBF7C8FAA8
:104FB80006460F4604F13808FBF772FD00F130028F
:104FC8008D4B03F80820FBF755FA02460B4630468E
:104FD8003946FBF701F9C5E900010134052CE0DD8C
:104FE8000022864B50465946FBF71CFD00284BD043
:104FF800814B202283F8342083F83520794A52786F
:1050080083F836207E4B1B78532B38D07D4801F02F
:10501800B0FA0022744B51EC100BFBF7BBFB0446B3
:105028000D4645EC104B03F09BF951EC100BFBF7C8
:1050380037FDFBF71FFA06460F4602460B46204689
:105048002946FBF7C9F80022674BFBF779FA0022DB
:10505800664BFBF79FFB02460B466B49C1E90023F1
:1050680030463946FBF7BAF882468B46674BC3E9A8
:1050780000AB2E22604B83F84320002435E02D221C
:105088005D4B83F83520C1E75B4B202283F8342041
:10509800544A117883F83510527883F83620584BE3
:1050A8001B78532BB2D12D22534B83F83420ADE714
:1050B800554D0022514BD5E90001FBF741FA064650
:1050C8000F4604F14408FBF7EBFC00F130024A4BB1
:1050D80003F80820FBF7CEF902460B46304639465E
:1050E800FBF77AF8C5E900010134052CE0DD002260
:1050F800424B50465946FBF795FC60B33E4B202285
:1051080083F83F2083F8402083F841203D4A927875
:1051180083F842203E4B1B78572B17D03D48FBF7AE
:105128004FF8052810D93B4A1178334B1974517838
:1051380059743A2199749078D874D078187559753B
:10514800117999755279DA75002346E02D222A4B98
:1051580083F84120E2E70022284B50465946FBF7E6
:1051680075FCE0B10022204B50465946FBF75AFC2B
:10517800A8B1214B202283F83F2083F84020214A00
:10518800517883F84110927883F84220204B1B789D
:10519800572BC3D12D22184B83F84020BEE7164B5E
:1051A800202283F83F20174A117883F8401051785D
:1051B80083F84110927883F84220154B1B78572BBF
:1051C800ACD12D220C4B83F83F20A7E703F14B020B
:1051D8001149C85C084988540133062BF6DDBDE83F
:1051E800F08D00BFF00200200000594000004E4042
:1051F800E8020020E0020020100000200000244007
:105208009C02002004030020200300201803002033
:105218009402002054030020A4020020174B1B789E
:1052280003B9704710B50021144B1970144B19704D
:10523800144C6422204601F0C9F9134B1A78013244
:105248001249204601F0E0F92046FFF751FD104BC6
:1052580018701B7803B910BD0B4B19780131204623
:10526800FFF796FD0B4B18701B78002BF3D02046E8
:10527800FFF7B6FDFFF75AFEEDE700BF4E0300202B
:105288004F030020E0050020DA020020740500200A
:10529800DB02002068030020514B1B6803F1090260
:1052A800122A51D903F16302C62A58D970B403F2FD
:1052B800E73140F2CE7291426AD903F51C520F329F
:1052C80044F61E618A4200F28880002BB8BF5B4218
:1052D800444D85FB0312D817C0EBA202164602EB19
:1052E800820251005A1A30323F4CA27385FB0612D3
:1052F800F117C1EBA20101EB81014A00B11A30316B
:1053080061733A4A82FB0312C0EB621285FB0216F4
:10531800D117C1EBA60101EB81014E00911B303181
:105328002173334A82FB0323C0EBA31085FB0035AE
:10533800C217C2EBA50202EB82025300C21A303236
:10534800E2722023A37248E0002BB8BF5B423033DF
:10535800254A937320231373D37293727047002BDB
:10536800B8BF5B421F4981FB0321DA17C2EBA102D8
:10537800114602EB820250001A1A30321A4B9A7305
:1053880001F130025A7320221A73DA729A72704746
:10539800002BB8BF5B42134C84FB0312D917C1EB37
:1053A800A202154602EB820250001A1A30320E4849
:1053B800827384FB0524EA17C2EBA40202EB820283
:1053C80054002A1B30324273084A82FB0323C1EB84
:1053D8006313303303732023837270BC704700BF9C
:1053E800C402002067666666100000201F85EB5126
:1053F800D34D6210F8B52E22504B83F85820504BED
:10540800D3E9004520462946FBF74AFB0646FBF749
:1054180031F802460B4620462946FAF7DDFE0022FF
:10542800484BFBF78DF841EC100B03F01DF851ECDD
:10543800100BFBF735FB09284ADD0022424B2046BA
:105448002946FAF7CBFEFBF72BFB30303B4B83F8B2
:105458005700302283F8592000223C4B3C49D1E9BF
:105468000001FBF76DF8FBF71BFB0446394B18608E
:10547800092835DDA0F10B03582B3BD9FAF7FAFFC1
:105488000022354BFBF786F9FBF70AFB30302B4D32
:1054980085F85300314B83FB0423E217C2EB6313F7
:1054A800642101FB13432E4981FB0360DB17C3EB27
:1054B800A003303385F8543081FB0413C2EBA303F7
:1054C80003EB83035A00A31A303385F85530F8BD2F
:1054D80030361A4B83F85760303083F85900BBE7F1
:1054E800164B202283F8532083F85420303483F855
:1054F8005540F8BD114D202385F85330FAF7BAFF0F
:105508000022104BFBF746F906460F46FBF7C8FA90
:1055180000F1300385F85430FAF7ACFF02460B4629
:1055280030463946FAF758FE0022064BFBF708F8D2
:10553800FBF7B6FA303085F85500F8BD10000020AA
:1055480070030020000024400000F03F00408F401E
:10555800B0020020D0020020000059401F85EB5106
:10556800676666660000000038B52D4801F001F84E
:105578002C4B1B68002B0DDD013B2A4A136003B13D
:1055880038BD002202212848FCF7DCF90122274B0C
:105598001A7038BD264B1B78FBB11BA3D3E9002337
:1055A80051EC100BFBF752FAB8B1224BD3E9004586
:1055B80017A3D3E9002320462946FBF751FA38B947
:1055C80015A3D3E9002320462946FBF72BFA20B17F
:1055D800194A13680133136002E00022164B1A605F
:1055E800154B1B68042BCBDD012202210E48FCF76A
:1055F800A9F90A220B4B1A6000220F4B1A600B22E2
:105608000E4B1A60BCE700BF000000000088C340D2
:10561800ACADD85F76EF3240B4AD669DF1F931405C
:10562800A4020020BC02002000040048B8020020A8
:105638006803002018030020C00200200800002092
:10564800F8B52DED028B444901230B60434C2046ED
:10565800FBF7C2FD2046FBF7ADFC05212046FBF712
:105668002BFD00285ED03E4902230B603B4C2046B0
:10567800FBF7B2FD2046FBF79DFC05212046FBF712
:105688001BFD002854D0374BD3ED007AF8EE677A2B
:10569800DFED358A67EEA87A9FED348A87EE887A3F
:1056A80017EE100AFAF7F8FE06460F46304BC3E924
:1056B8000067304BD3ED007AF8EE677A67EEA87A88
:1056C80087EE887A17EE100AFAF7E6FE04460D46CA
:1056D800294BC3E900451AA3D3E9002330463946CC
:1056E800FAF72EFF18A3D3E90023FBF753F8234B4F
:1056F800C3E9000116A3D3E9002320462946FBF796
:1057080049F81F4BC3E900011E4CD4E90023FAF7FE
:1057180065FDC4E900011C4A136801331360BDEC40
:10572800028BF8BD2046FBF753FD0E4B18609AE735
:105738002046FBF74DFD0F4B1860A4E7AFF3008040
:10574800000000008006DF40000000000015C34094
:105758007B14AE8743EB3A4064020020D403002058
:105768007C020020600500206666564000007F43EA
:1057780030030020D80500203803002070030020E3
:10578800C8020020600300205003002038B50446FA
:105798000120FFF7F6F9344D00224FF480712846B6
:1057A800FCF7D0F800224FF400712846FCF7CAF83D
:1057B80001224FF480514FF09040FCF7C3F8E20902
:1057C8004FF400614FF09040FCF7BCF8C4F380122E
:1057D8004FF480614FF09040FCF7B4F8C4F34012E6
:1057E8004FF400714FF09040FCF7ACF8C4F300128E
:1057F8004FF480714FF09040FCF7A4F800224FF46A
:1058080080514FF09040FCF79DF801224FF48051F1
:105818004FF09040FCF796F8C4F3C0024FF40061D3
:105828004FF09040FCF78EF8C4F380024FF480618B
:105838004FF09040FCF786F8C4F340024FF4007133
:105848004FF09040FCF77EF804F001024FF48071AD
:105858004FF09040FCF776F800224FF480514FF05B
:105868009040FCF76FF838BD0004004810B50F20D1
:10587800FBF7F8F97A4C00224FF480712046FCF7C8
:1058880061F800224FF400712046FCF75BF8012212
:105898004FF480514FF09040FCF754F800224FF439
:1058A80000614FF09040FCF74DF800224FF4806102
:1058B8004FF09040FCF746F801224FF400714FF08A
:1058C8009040FCF73FF801224FF480714FF0904070
:1058D800FCF738F800224FF480514FF09040FCF765
:1058E80031F80520FBF7BEF900224FF480712046FD
:1058F800FCF728F800224FF400712046FCF722F844
:1059080001224FF480514FF09040FCF71BF8002221
:105918004FF400614FF09040FCF714F800224FF468
:1059280080614FF09040FCF70DF801224FF40071B0
:105938004FF09040FCF706F801224FF480714FF0C9
:105948009040FBF7FFFF00224FF480514FF090404A
:10595800FBF7F8FF0120FBF785F900224FF480716F
:105968002046FBF7EFFF00224FF400712046FBF7BB
:10597800E9FF01224FF480514FF09040FBF7E2FF1E
:1059880000224FF400614FF09040FBF7DBFF00224C
:105998004FF480614FF09040FBF7D4FF01224FF4A1
:1059A80000714FF09040FBF7CDFF01224FF480715A
:1059B8004FF09040FBF7C6FF00224FF480514FF0A4
:1059C8009040FBF7BFFF0120FBF74CF900224FF492
:1059D80080712046FBF7B6FF00224FF40071204685
:1059E800FBF7B0FF01224FF480514FF09040FBF7D6
:1059F800A9FF00224FF400614FF09040FBF7A2FF8F
:105A080000224FF480614FF09040FBF79BFF01228A
:105A18004FF400714FF09040FBF794FF00224FF4D1
:105A280080714FF09040FBF78DFF00224FF48051BA
:105A38004FF09040FBF786FF0120FBF713F9282071
:105A4800FFF7A4FE0820FFF7A1FE0120FFF79EFE46
:105A58000620FFF79BFE0F20FFF798FE10BD00BF42
:105A68000004004838B504460120FFF78AF8344D91
:105A780001224FF480712846FBF764FF00224FF49F
:105A880000712846FBF75EFF01224FF480514FF06A
:105A98009040FBF757FFE2094FF400614FF0904048
:105AA800FBF750FFC4F380124FF480614FF0904031
:105AB800FBF748FFC4F340124FF400714FF09040D9
:105AC800FBF740FFC4F300124FF480714FF0904091
